:020000020000FC
:0200000045C0F9
:10008C000FEF0DBF00E10EBF2224C0E1D1E0E2ED85
:10009C00F2E00591099305910993C2E1D1E0E4EDF9
:1000AC00F2E00591099305910993000045D00000F9
:1000BC00C0E3D1E0E6EDF2E00591099305910993D7
:1000CC00C2E3D1E0E8EDF2E00591099305910993C3
:1000DC00000044D00000C0E5D1E0EAEDF2E005916B
:1000EC0009930591099305910993C3E5D1E0ECEDD2
:1000FC00F2E005910993059109930591099300008C
:10010C003CD00000C0E7D1E0EEEDF2E005910993A0
:10011C0005910993E0EEF2E005910993059109939D
:10012C00C2E7D1E0E2EEF2E0059109930591099363
:10013C0000005ED00000FFCFA0E1B1E0C2E1D1E051
:10014C00E0E2F1E03D904990340C31923C904880D3
:10015C00341C31923324321C30820895A0E3B1E078
:10016C00C2E3D1E0E0E4F1E03D90499034183192E3
:10017C003C9048803418308208953F924F921F92E1
:10018C000F922F92BF93AF93DF93CF93FF93EF9385
:10019C001F932F932224C3E5D1E0E0E6F1E013E0B6
:1001AC00A0E5B1E023E03D904880349C3190419033
:1001BC00030C141C3080321C31923080321C308283
:1001CC0032971292029231962A9569F732973196AC
:1001DC001A9531F72F911F91EF91FF91CF91DF91EC
:1001EC00AF91BF912F900F901F904F903F9008951B
:1001FC00C0E3D1E0E0E7F1E00591099305910993A3
:10020C00C2E3D1E0E2E7F1E005910993059109938E
:10021C00A5DFC0E1D1E0E0E4F1E00591099305919F
:10022C000993C2E1D1E0E4E7F1E00591099305916E
:10023C00099382DFC0E5D1E0A3E5B1E0E0E2F1E0B3
:10024C00019109930D93008109930D9301910993E9
:10025C000D9393DF08953F924F921F920F922F921E
:10026C00BF93AF93DF93CF93FF93EF931F932F9392
:10027C002224C2E0D1E0E4E0F1E012E0A0E0B1E041
:10028C0022E03D904880349C31904190030C141C2A
:10029C003080321C30821292029231962A9589F764
:1002AC00319721961A9551F72F911F91EF91FF914C
:1002BC00CF91DF91AF91BF912F900F901F904F90E6
:1002CC003F9008950895BAFCFFFFB9FC20E4FFFFAE
:0802DC00FFFFBAFC1920BB2151
:00000001FF
