:020000020000FC
:0200000045C0F9
:10008C0022240FEF0DBF00E10EBF0FEF07BB00E006
:10009C0008BB00E001BB0FEF02BB7BD324D08FEF7A
:1000AC0071E440E000B305FFE9F300FF38D006FF30
:1000BC006ED007FF96D004FFBBD0F4CF0F930FB7D1
:1000CC000F93EF93FF93CF93DF9305910993EA1767
:1000DC00E1F7FB17D1F7DF91CF91FF91EF910F91E2
:1000EC000FBF0F910895AF93BF93CF93DF93EF930F
:1000FC00FF93ACE7B7E0C0E0D1E0ECE6F7E0DEDF81
:10010C00ACE8B7E0C0E1D1E0ECE7F7E0D7DF80D3B3
:10011C00FF91EF91DF91CF91BF91AF9108950F9324
:10012C001F930FB70F93AF93BF93CF93DF93EF93BF
:10013C00FF9341E01FE005D3ACE9B7E0C0E0D1E0AC
:10014C00ECE8F7E0BBDF67D3C0E0D3E08395C80FE2
:10015C0071E47993803119F0803019F007C068D0C0
:10016C00DECF8CD3072F32E0282F05C071E4072F88
:10017C0032E0282F00C092D3FF91EF91DF91CF9105
:10018C00BF91AF910F910FBF1F910F9108950F93D6
:10019C001F930FB70F93CF93DF931FE0D2D201E0E1
:1001AC00041709F07FCFC0E0D3E05FEF752E739595
:1001BC007B3521F0072F32E0282F05C071E4072F83
:1001CC0032E0282F00C06AD37394871509F0E1F749
:1001DC00C70D7993DF91CF910F911F910FBF0F91A5
:1001EC0008950F931F930FB70F931FE0AAD201E04E
:1001FC00041709F057CFC0E0D3E0C80F5FEF752E9E
:10020C007A95703421F0072F32E0282F05C07AE55B
:10021C00072F32E0282F00C041D37394871509F0C3
:10022C00E1F7C70D79930F911F910FBF0F910895AF
:10023C000F931F930FB70F93AF93BF93CF93DF938E
:10024C00EF93FF931FE07DD251E0541709F02ACFB2
:10025C00ECE9F7E0C0E0D2E0A0E0B3E035913993EF
:10026C00313009F003C08F3F21F004C08F3F09F0FB
:10027C00F4C0E1C10D910134000009F009F463C030
:10028C00023409F009F463C0033409F009F465C0C1
:10029C00043409F009F467C0053409F009F468C0A6
:1002AC00063409F009F467C0073409F009F469C091
:1002BC00083409F009F46AC0093409F009F46CC077
:1002CC000A3409F009F46CC00B3409F009F46EC05F
:1002DC000C3409F009F46FC00D3409F009F471C045
:1002EC000E3409F009F471C00F3409F009F471C02F
:1002FC00003509F009F472C0013509F009F474C035
:10030C00023509F009F476C0033509F009F477C019
:10031C00043509F009F478C0053509F009F477C003
:10032C00063509F009F478C0073509F009F47AC0EC
:10033C00083509F009F47BC0093509F009F47DC0D2
:10034C000A3501F080C087D191D1C2D182C08ED143
:10035C0082D181D180D1BCD17CC088D17CD186D1D5
:10036C007AD1B6D176C082D176D175D1B1D171C0E6
:10037C0072D1AED16EC06FD16ED178D16CD1A8D103
:10038C0068C074D173D167D1A3D163C064D163D178
:10039C0062D161D19DD15DC05ED15DD199D159C081
:1003AC005AD164D163D162D193D153C05FD153D1AF
:1003BC005DD18ED14EC04FD159D14DD14CD188D1B8
:1003CC0048C054D153D184D144C050D144D180D1F0
:1003DC0040C04CD14BD14AD17BD13BC03CD146D152
:1003EC0045D139D175D135C041D140D134D13ED16F
:1003FC006FD12FC030D13AD12ED16AD12AC02BD196
:10040C002AD129D165D125C031D162D122C023D1C5
:10041C0022D12CD15DD11DC01ED11DD11CD126D114
:10042C0057D117C018D122D121D152D112C01ED10F
:10043C0012D111D11BD14CD10CC018D10CD116D169
:10044C0015D146D106C012D111D105D104D140D15C
:10045C0000C08A9508CF8A9509CF0D91013409F017
:10046C0009F463C0023409F009F463C0033409F0E1
:10047C0009F465C0043409F009F467C0053409F0C7
:10048C0009F468C0063409F009F467C0073409F0B0
:10049C0009F469C0083409F009F46AC0093409F098
:1004AC0009F46CC00A3409F009F46CC00B3409F07F
:1004BC0009F46EC00C3409F009F46FC00D3409F066
:1004CC0009F471C00E3409F009F471C00F3409F04D
:1004DC0009F471C0003509F009F472C0013509F056
:1004EC0009F474C0023509F009F476C0033509F03B
:1004FC0009F477C0043509F009F478C0053509F022
:10050C0009F477C0063509F009F478C0073509F00D
:10051C0009F47AC0083509F009F47BC0093509F0F3
:10052C0009F47DC00A3501F080C0ABD0B4D0F6D050
:10053C0092CFB1D0A6D0A5D0A4D0F0D08CCFABD0D8
:10054C00A0D0A9D09ED0EAD086CFA5D09AD099D0F1
:10055C00E5D081CF96D0E2D07ECF93D092D09BD0F5
:10056C0090D0DCD078CF97D096D08BD0D7D073CF1B
:10057C0088D087D086D085D0D1D06DCF82D081D095
:10058C00CDD069CF7ED087D086D085D0C7D063CF71
:10059C0082D077D080D0C2D05ECF73D07CD071D0D7
:1005AC0070D0BCD058CF77D076D0B8D054CF73D0D1
:1005BC0068D0B4D050CF6FD06ED06DD0AFD04BCF01
:1005CC0060D069D068D05DD0A9D045CF64D063D05D
:1005DC0058D061D0A3D03FCF54D05DD052D09ED054
:1005EC003ACF4FD04ED04DD099D035CF54D096D0A5
:1005FC0032CF47D046D04FD091D02DCF42D041D022
:10060C0040D049D08BD027CF3CD045D044D086D0D9
:10061C0022CF41D036D035D03ED080D01CCF3BD06D
:10062C0030D039D038D07AD016CF35D034D029D07C
:10063C0028D074D010CFC498C598C698C79820CD30
:10064C00FF91EF91DF91CF91BF91AF910F910FBFC0
:10065C001F910F910895C49AC59AC69AC79A25D02E
:10066C00C49AC598C698C79820D00895C49AC59ABC
:10067C00C69AC79A2DD0C49AC598C698C79815D053
:10068C000895C49AC59AC69AC79A35D0C598C69883
:10069C00C79831D00895C49AC59AC69AC79A3ED0C5
:1006AC00C598C698C79827D00895BC9ABD9ABE9A8B
:1006BC00BF9A00E00FBD04E00EBD21E094E69CBDA6
:1006CC0096B79470E9F394E096BF2A95B9F708951C
:1006DC00BC9ABD9ABE9ABF9A00E00FBD04E00EBD55
:1006EC0023E094E69CBD96B79470E9F394E096BF32
:1006FC002A95B9F70895BC9ABD9ABE9ABF9A00E0A4
:10070C000FBD02E00EBD26E094E69CBD96B794703A
:10071C00E9F394E096BF2A95B9F70895BC9ABD9A6F
:10072C00BE9ABF9A00E00FBD02E00EBD22E194E636
:10073C009CBD96B79470E9F394E096BF2A9589F620
:10074C0008951F936F935F9350EE6DEE6A95F1F7DA
:10075C005A95D9F71A95C1F75F916F911F9108952A
:10076C0057656C636F6D6521202020202020202090
:10077C00506C6561736520707265737320504430E2
:10078C00456E74657220776F72643A2020202020A9
:10079C0001000F930FB70F931F9300E008BB0FEFEF
:1007AC0007BB00E002BB00E001BB00E0009362006D
:1007BC0008E00093610000E50DB901E00EB900E816
:1007CC0005BF02E400936D0000E800936C0000E0AC
:1007DC000BB908E10AB906E00093950000E000931C
:1007EC00900007E609B906E01AEFBFD00A95E1F7C9
:1007FC0008E397D008E095D001E093D006E091D0C3
:10080C000CE08FD028D01F910F910FBF0F9108953E
:10081C0002D011D008950F93EF93FF932F933F9332
:10082C00E0E0F1E030E86BD076D03F912F91FF9172
:10083C00EF910F9108950F93EF93FF932F933F93A5
:10084C00E0E1F1E030EC5BD066D03F912F91FF916D
:10085C00EF910F91089502D011D008950F933F930B
:10086C002F93EF93FF9330E84AD0E0E0F1E04CD0C7
:10087C00FF91EF912F913F910F9108950F933F931B
:10088C002F93EF93FF9330EC3AD0E0E1F1E03CD0C2
:10089C00FF91EF912F913F910F9108950F933F93FB
:1008AC002F93283250F4313011F430E803C0323039
:1008BC0021F430EC320F23D042D02F913F910F9185
:1008CC0008950F936F935F93BF93AF93043618F013
:1008DC0023E0139607C00A3018F022E0129602C0EB
:1008EC00119621E04AD000E3060F0E93052F00303D
:1008FC00C9F7AF91BF915F916F910F9108950F93CD
:10090C00032F0FD00F91089500E220E1019317D02F
:10091C002A95E1F7089520E1019111D02A95E1F78C
:10092C0008954F931F9340E013D00F9302E01DECFA
:10093C001CD00A95E1F70F911F914F9108954F9399
:10094C001F9341E005D010E110D01F914F910895F5
:10095C004FB912E00AD00FB912E007D018E010938B
:10096C00620010E01093620008950F9309E40A9559
:10097C00F1F71A95D9F70F9108950F92502F5695BC
:10098C005695500F5695500F569556955695500FA7
:10099C005695500F569556955695500F5695500F97
:1009AC005695569556955695652F660F660F650F9D
:1009BC00660F062E602F60196A3018F053956A5036
:0609CC00FBCF0F9008951F
:00000001FF
