:020000020000FC
:0200000045C0F9
:1000040061D0189577D018958DD0189598D01895FB
:10008C000FEF0DBF00E10EBF0FEF07BB00E008BB89
:10009C0000E001BB0FEF02BB0AEA00936A000FE01D
:1000AC0009BF09E603BF05BD00E608BB1FE0012739
:1000BC0008BB00E001BF03BD7894FFCF0F930FB7CF
:1000CC000F932FE045D0012F003051F01A9500E628
:1000DC00012708BB01E1019F0FEF001901BF03BD10
:1000EC000FE008BF0F910FBF0F9108950F930FB73B
:1000FC000F932FE02DD0012F0F3051F0139500E608
:10010C00012708BB01E1019F0FEF001901BF03BDDF
:10011C000FE008BF0F910FBF0F9108950F932FE0C1
:10012C0017D00FEF01BF03BD10E000E608BB0FE0D6
:10013C0008BF0F9108950F932FE00AD000E001BF84
:10014C0003BD1FE00FE608BB0FE008BF0F91089539
:10015C002F933F934F9340EE3DEE3A95F1F74A952E
:0E016C00D9F72A95C1F74F913F912F91089531
:00000001FF
