:020000020000FC
:0200000045C0F9
:10008C00222455270FEF0DBF00E10EBFE0E5F7E08E
:10009C00C0E0D1E005914491440F001F551F440F5F
:1000AC00001F551F09935883C2E0D1E0059144917C
:1000BC00440F001F551F522D440F001F551F522D6A
:1000CC00440F001F551F440F001F551F09935883E1
:1000DC00C4E0D1E005914491440F001F551F522DEF
:1000EC00440F001F551F522D440F001F551F522D3A
:1000FC00440F001F551F522D440F001F551F440F56
:10010C00001F551F09935883C6E0D1E00591449117
:10011C00440F001F551F522D440F001F551F522D09
:10012C00440F001F551F522D440F001F551F522DF9
:10013C00440F001F551F522D440F001F551F522DE9
:10014C00440F001F551F440F001F551F0993588360
:10015C00C8E0D1E0059105910993CAE0D1E0059181
:10016C004491440F001F551F522D440F001F551F63
:10017C00522D440F001F551F440F001F551F09938C
:10018C0058830FD045D07BD0B1D0E7D01DD153D1FF
:10019C0068D17DD192D1CED10AD246D28AD20C94DA
:1001AC00A6033F924F921F920F922F92BF93AF9341
:1001BC00DF93CF93FF93EF931F932F932224C0E0F1
:1001CC00D1E0E6E1F1E012E0A0E0B1E022E03D9008
:1001DC004880349C31904190030C141C3080321CAC
:1001EC0030821292029231962A9589F73197219694
:1001FC001A9551F72F911F91EF91FF91CF91DF91AC
:10020C00AF91BF912F900F901F904F903F900895FA
:10021C003F924F921F920F922F92BF93AF93DF9307
:10022C00CF93FF93EF931F932F932224C2E0D1E03F
:10023C00E9E1F1E012E0A2E0B1E022E03D9048807B
:10024C00349C31904190030C141C3080321C308251
:10025C001292029231962A9589F7319721961A9526
:10026C0051F72F911F91EF91FF91CF91DF91AF91AA
:10027C00BF912F900F901F904F903F9008953F92F9
:10028C004F921F920F922F92BF93AF93DF93CF9306
:10029C00FF93EF931F932F932224C4E0D1E0ECE162
:1002AC00F1E012E0A4E0B1E022E03D904880349C03
:1002BC0031904190030C141C3080321C308212920D
:1002CC00029231962A9589F7319721961A9551F712
:1002DC002F911F91EF91FF91CF91DF91AF91BF9132
:1002EC002F900F901F904F903F9008953F924F92F8
:1002FC001F920F922F92BF93AF93DF93CF93FF93E5
:10030C00EF931F932F932224C6E0D1E0EFE1F1E0AD
:10031C0012E0A6E0B1E022E03D904880349C3190A0
:10032C004190030C141C3080321C308212920292C9
:10033C0031962A9589F7319721961A9551F72F9175
:10034C001F91EF91FF91CF91DF91AF91BF912F90C2
:10035C000F901F904F903F9008953F924F921F9295
:10036C000F922F92BF93AF93DF93CF93FF93EF93A3
:10037C001F932F932224C8E0D1E0E2E2F1E012E0D7
:10038C00A8E0B1E022E03D904880349C319041904F
:10039C00030C141C3080321C308212920292319663
:1003AC002A9589F7319721961A9551F72F911F911C
:1003BC00EF91FF91CF91DF91AF91BF912F900F9063
:1003CC001F904F903F9008953F924F921F920F9223
:1003DC002F92BF93AF93DF93CF93FF93EF931F9322
:1003EC002F932224CAE0D1E0E5E2F1E012E0AAE08A
:1003FC00B1E022E03D904880349C31904190030C58
:10040C00141C3080321C30821292029231962A9542
:10041C0089F7319721961A9551F72F911F91EF91EA
:10042C00FF91CF91DF91AF91BF912F900F901F90C3
:10043C004F903F900895A6E1B1E0C9E1D1E0E0E032
:10044C00FEE03D904990340C31923D904990341C23
:10045C0031923D904990341C31923324321C3082BD
:10046C000895ACE1B1E0CFE1D1E0E5E0FEE03D90F4
:10047C004990340C31923D904990341C31923D900E
:10048C004990341C31923324321C30820895A2E2FC
:10049C00B1E0C5E2D1E0EAE0FEE03D904990340CD9
:1004AC0031923D904990341C31923D904990341CCE
:1004BC0031923324321C30820895C0E0DEE0E0E05B
:1004CC00FEE039904990588050E081E090E060E087
:1004DC0070E0381A450A550A30F1F9F08F3F39F0BF
:1004EC00839583956395F5CF7395662709C093958E
:1004FC0088278395381A490A550A63956F3FA1F3EB
:10050C008F3FA9F383958395381A490A550A28F029
:10051C0051F063956F3F41F3F3CF05910591059130
:10052C00619370830895059105910591639561938D
:10053C0070830895C5E0DEE0E5E0FEE03990499077
:10054C00588050E081E090E060E070E0381A450A95
:10055C00550A30F1F9F08F3F39F083958395639507
:10056C00F5CF7395662709C0939588278395381A1C
:10057C00490A550A63956F3FA1F38F3FA9F3839501
:10058C008395381A490A550A28F051F063956F3F44
:10059C0041F3F3CF05910591059161937083089513
:1005AC000591059105916395619370830895CAE057
:1005BC00DEE0EAE0FEE039904990588050E081E0BE
:1005CC0090E060E070E0381A450A550A30F1F9F015
:1005DC008F3F39F0839583956395F5CF7395662797
:1005EC0009C0939588278395381A490A550A63954B
:1005FC006F3FA1F38F3FA9F383958395381A490A6E
:10060C00550A28F051F063956F3F41F3F3CF0591F4
:10061C00059105916193708308950591059105915C
:10062C006395619370830895A0E0BEE0C5E0DEE0C1
:10063C00EAE0FEE03D903D903D903D904C9059900D
:10064C0059905990599068807190719071907190F7
:10065C00808050E0461430F009F00CC0351410F0D6
:10066C0009F008C0481470F009F017C0371450F0A6
:10067C00D1F013C0681458F009F00FC0571438F0BB
:10068C0091F00BC0AFE0BEE051E05D930895CFE078
:10069C00DEE0599152E059930895EFE0FEE051915C
:1006AC0053E051930895AFE0BEE05D915FEF5D9331
:1006BC00089519D030D0CFE2D1E0E0E1FEE03990DE
:1006CC00488050E083E060E070E0381A450A40F062
:1006DC0039F063956F3F09F0F8CF73956627F5CF26
:1006EC00619370830895A0E0BEE0C5E0DEE0ECE22B
:1006FC00F1E03D903D903D903D904990499049905E
:10070C004990340C31923C904880341C3192332403
:10071C00321C30820895ACE2B1E0CAE0DEE0EFE2D8
:10072C00F1E03D904990499049904990340C3192B8
:10073C003C904880341C31923324321C3082089512
:0C074C000000FECF0141908E00001FF065
:00000001FF
